{
    "_format": "hh-sol-artifact-1",
    "contractName": "GaiaBuyBackFund",
    "sourceName": "contracts/GaiaBuyBackFund.sol",
    "abi": [
        {
            "constant": false,
            "inputs": [
                {
                    "name": "token",
                    "type": "address"
                },
                {
                    "name": "recipient",
                    "type": "address"
                },
                {
                    "name": "amount",
                    "type": "uint256"
                }
            ],
            "name": "withdrawToken",
            "outputs": [],
            "payable": false,
            "stateMutability": "nonpayable",
            "type": "function"
        },
        {
            "constant": false,
            "inputs": [
                {
                    "name": "ids",
                    "type": "uint256[]"
                },
                {
                    "name": "recipient",
                    "type": "address"
                }
            ],
            "name": "withdrawGaiaNFT",
            "outputs": [],
            "payable": false,
            "stateMutability": "nonpayable",
            "type": "function"
        },
        {
            "constant": true,
            "inputs": [],
            "name": "buyBackInitialized",
            "outputs": [
                {
                    "name": "",
                    "type": "bool"
                }
            ],
            "payable": false,
            "stateMutability": "view",
            "type": "function"
        },
        {
            "constant": false,
            "inputs": [],
            "name": "closeBuyBack",
            "outputs": [],
            "payable": false,
            "stateMutability": "nonpayable",
            "type": "function"
        },
        {
            "constant": false,
            "inputs": [],
            "name": "renounceOwnership",
            "outputs": [],
            "payable": false,
            "stateMutability": "nonpayable",
            "type": "function"
        },
        {
            "constant": false,
            "inputs": [
                {
                    "name": "recipient",
                    "type": "address"
                },
                {
                    "name": "amount",
                    "type": "uint256"
                }
            ],
            "name": "withdrawKlay",
            "outputs": [],
            "payable": false,
            "stateMutability": "nonpayable",
            "type": "function"
        },
        {
            "constant": true,
            "inputs": [],
            "name": "refundableKlay",
            "outputs": [
                {
                    "name": "",
                    "type": "uint256"
                }
            ],
            "payable": false,
            "stateMutability": "view",
            "type": "function"
        },
        {
            "constant": true,
            "inputs": [],
            "name": "owner",
            "outputs": [
                {
                    "name": "",
                    "type": "address"
                }
            ],
            "payable": false,
            "stateMutability": "view",
            "type": "function"
        },
        {
            "constant": true,
            "inputs": [],
            "name": "isOwner",
            "outputs": [
                {
                    "name": "",
                    "type": "bool"
                }
            ],
            "payable": false,
            "stateMutability": "view",
            "type": "function"
        },
        {
            "constant": false,
            "inputs": [
                {
                    "name": "ids",
                    "type": "uint256[]"
                }
            ],
            "name": "sellGaiaNFT",
            "outputs": [],
            "payable": false,
            "stateMutability": "nonpayable",
            "type": "function"
        },
        {
            "constant": true,
            "inputs": [],
            "name": "gaiaNFT",
            "outputs": [
                {
                    "name": "",
                    "type": "address"
                }
            ],
            "payable": false,
            "stateMutability": "view",
            "type": "function"
        },
        {
            "constant": true,
            "inputs": [],
            "name": "buyBack",
            "outputs": [
                {
                    "name": "",
                    "type": "bool"
                }
            ],
            "payable": false,
            "stateMutability": "view",
            "type": "function"
        },
        {
            "constant": true,
            "inputs": [],
            "name": "gaiaOperation",
            "outputs": [
                {
                    "name": "",
                    "type": "address"
                }
            ],
            "payable": false,
            "stateMutability": "view",
            "type": "function"
        },
        {
            "constant": false,
            "inputs": [
                {
                    "name": "newGaiaOperation",
                    "type": "address"
                }
            ],
            "name": "updateGaiaOperation",
            "outputs": [],
            "payable": false,
            "stateMutability": "nonpayable",
            "type": "function"
        },
        {
            "constant": false,
            "inputs": [
                {
                    "name": "newOwner",
                    "type": "address"
                }
            ],
            "name": "transferOwnership",
            "outputs": [],
            "payable": false,
            "stateMutability": "nonpayable",
            "type": "function"
        },
        {
            "inputs": [
                {
                    "name": "_gaiaNFT",
                    "type": "address"
                },
                {
                    "name": "_gaiaOperation",
                    "type": "address"
                }
            ],
            "payable": false,
            "stateMutability": "nonpayable",
            "type": "constructor"
        },
        {
            "payable": true,
            "stateMutability": "payable",
            "type": "fallback"
        },
        {
            "anonymous": false,
            "inputs": [],
            "name": "CloseBuyBack",
            "type": "event"
        },
        {
            "anonymous": false,
            "inputs": [
                {
                    "indexed": true,
                    "name": "recipient",
                    "type": "address"
                },
                {
                    "indexed": false,
                    "name": "amount",
                    "type": "uint256"
                }
            ],
            "name": "WithdrawKlay",
            "type": "event"
        },
        {
            "anonymous": false,
            "inputs": [
                {
                    "indexed": true,
                    "name": "id",
                    "type": "uint256"
                },
                {
                    "indexed": true,
                    "name": "seller",
                    "type": "address"
                },
                {
                    "indexed": false,
                    "name": "refundedKlay",
                    "type": "uint256"
                }
            ],
            "name": "Sell",
            "type": "event"
        },
        {
            "anonymous": false,
            "inputs": [
                {
                    "indexed": false,
                    "name": "newGaiaOperation",
                    "type": "address"
                }
            ],
            "name": "UpdateGaiaOperation",
            "type": "event"
        },
        {
            "anonymous": false,
            "inputs": [
                {
                    "indexed": true,
                    "name": "previousOwner",
                    "type": "address"
                },
                {
                    "indexed": true,
                    "name": "newOwner",
                    "type": "address"
                }
            ],
            "name": "OwnershipTransferred",
            "type": "event"
        }
    ],
    "bytecode": "0x608060405260028054600160a01b60ff0219167401000000000000000000000000000000000000000017905534801561003757600080fd5b506040516040806113ac8339810180604052604081101561005757600080fd5b508051602090910151600080546001600160a01b03191633178082556040516001600160a01b039190911691907f8be0079c531659141344cd1fd0a4f28419497f9722a3daafe3b4186f6b6457e0908290a3600180546001600160a01b039384166001600160a01b031991821617909155600280549290931691161790556112c8806100e46000396000f3fe6080604052600436106100e85760003560e01c80638da5cb5b1161008a578063acdf4f1811610059578063acdf4f181461033e578063d32a5bb314610353578063d7bb8fed14610368578063f2fde38b1461039b576100e8565b80638da5cb5b146102665780638f32d59b1461029757806395956779146102ac5780639d18abe014610329576100e8565b806348050a7b116100c657806348050a7b146101dc578063715018a6146101f157806376332348146102065780638513d65e1461023f576100e8565b806301e33667146100ea5780630fc5efb31461012d5780633fb5427e146101b3575b005b3480156100f657600080fd5b506100e86004803603606081101561010d57600080fd5b506001600160a01b038135811691602081013590911690604001356103ce565b34801561013957600080fd5b506100e86004803603604081101561015057600080fd5b81019060208101813564010000000081111561016b57600080fd5b82018360208201111561017d57600080fd5b8035906020019184602083028401116401000000008311171561019f57600080fd5b9193509150356001600160a01b0316610582565b3480156101bf57600080fd5b506101c8610677565b604080519115158252519081900360200190f35b3480156101e857600080fd5b506100e8610687565b3480156101fd57600080fd5b506100e8610853565b34801561021257600080fd5b506100e86004803603604081101561022957600080fd5b506001600160a01b0381351690602001356108e7565b34801561024b57600080fd5b50610254610a0b565b60408051918252519081900360200190f35b34801561027257600080fd5b5061027b610acc565b604080516001600160a01b039092168252519081900360200190f35b3480156102a357600080fd5b506101c8610adb565b3480156102b857600080fd5b506100e8600480360360208110156102cf57600080fd5b8101906020810181356401000000008111156102ea57600080fd5b8201836020820111156102fc57600080fd5b8035906020019184602083028401116401000000008311171561031e57600080fd5b509092509050610aec565b34801561033557600080fd5b5061027b610eb9565b34801561034a57600080fd5b506101c8610ec8565b34801561035f57600080fd5b5061027b610ed8565b34801561037457600080fd5b506100e86004803603602081101561038b57600080fd5b50356001600160a01b0316610ee7565b3480156103a757600080fd5b506100e8600480360360208110156103be57600080fd5b50356001600160a01b0316610fdc565b6103d6610adb565b6104185760408051600160e51b62461bcd028152602060048201819052602482015260008051602061127d833981519152604482015290519081900360640190fd5b6001600160a01b0382166104695760408051600160e51b62461bcd02815260206004820152600d6024820152600160981b6c57524f4e475f4144445245535302604482015290519081900360640190fd5b60408051600160e01b6370a0823102815230600482015290516000916001600160a01b038616916370a0823191602480820192602092909190829003018186803b1580156104b657600080fd5b505afa1580156104ca573d6000803e3d6000fd5b505050506040513d60208110156104e057600080fd5b50519050808211156104f0578091505b836001600160a01b031663a9059cbb84846040518363ffffffff1660e01b815260040180836001600160a01b03166001600160a01b0316815260200182815260200192505050602060405180830381600087803b15801561055057600080fd5b505af1158015610564573d6000803e3d6000fd5b505050506040513d602081101561057a57600080fd5b505050505050565b61058a610adb565b6105cc5760408051600160e51b62461bcd028152602060048201819052602482015260008051602061127d833981519152604482015290519081900360640190fd5b600154604051600160e01b63f3993d1102815230600482018181526001600160a01b0385811660248501526060604485019081526064850188905294169363f3993d1193869289928992608401846020850280828437600081840152601f19601f82011690508083019250505095505050505050600060405180830381600087803b15801561065a57600080fd5b505af115801561066e573d6000803e3d6000fd5b50505050505050565b600254600160a81b900460ff1681565b61068f610adb565b6106d15760408051600160e51b62461bcd028152602060048201819052602482015260008051602061127d833981519152604482015290519081900360640190fd5b600254600160a01b900460ff166107325760408051600160e51b62461bcd02815260206004820152600d60248201527f414c52454144595f454e44454400000000000000000000000000000000000000604482015290519081900360640190fd5b600260009054906101000a90046001600160a01b03166001600160a01b031663ef7c66476040518163ffffffff1660e01b815260040160206040518083038186803b15801561078057600080fd5b505afa158015610794573d6000803e3d6000fd5b505050506040513d60208110156107aa57600080fd5b50516107b4611032565b101561080a5760408051600160e51b62461bcd02815260206004820152600f60248201527f554e415641494c41424c455f5945540000000000000000000000000000000000604482015290519081900360640190fd5b6002805474ff0000000000000000000000000000000000000000191690556040517f7eb179c1cc57460855b6eb9749fc5c180cb7bfdd471423ba519e8c7dd78fef5690600090a1565b61085b610adb565b61089d5760408051600160e51b62461bcd028152602060048201819052602482015260008051602061127d833981519152604482015290519081900360640190fd5b600080546040516001600160a01b03909116907f8be0079c531659141344cd1fd0a4f28419497f9722a3daafe3b4186f6b6457e0908390a3600080546001600160a01b0319169055565b6108ef610adb565b6109315760408051600160e51b62461bcd028152602060048201819052602482015260008051602061127d833981519152604482015290519081900360640190fd5b6001600160a01b0382166109825760408051600160e51b62461bcd02815260206004820152600d6024820152600160981b6c57524f4e475f4144445245535302604482015290519081900360640190fd5b303180821115610990578091505b6040516001600160a01b0384169083156108fc029084906000818181858888f193505050501580156109c6573d6000803e3d6000fd5b506040805183815290516001600160a01b038516917f826f9fe3f257600b1ee672e1599881861bda1bee98a1dc6ca69f65219760dfed919081900360200190a2505050565b600254600090600160a01b900460ff16610a2757506000610ac9565b6000610a31611032565b90506000600260009054906101000a90046001600160a01b03166001600160a01b031663ef7c66476040518163ffffffff1660e01b815260040160206040518083038186803b158015610a8357600080fd5b505afa158015610a97573d6000803e3d6000fd5b505050506040513d6020811015610aad57600080fd5b5051905080821015610ac157818103610ac4565b60005b925050505b90565b6000546001600160a01b031690565b6000546001600160a01b0316331490565b333214610b435760408051600160e51b62461bcd02815260206004820152601160248201527f4f4e4c595f454f415f43414e5f43414c4c000000000000000000000000000000604482015290519081900360640190fd5b600254600160a81b900460ff16610cbb5760028054600160a81b60ff021916600160a81b179081905560408051600160e01b63c7217cd502815290516000926001600160a01b03169163c7217cd5916004808301926020929190829003018186803b158015610bb157600080fd5b505afa158015610bc5573d6000803e3d6000fd5b505050506040513d6020811015610bdb57600080fd5b505160025460408051600160e21b6322d70727028152600060048201819052915193945090926001600160a01b0390921691638b5c1c9c91602480820192602092909190829003018186803b158015610c3357600080fd5b505afa158015610c47573d6000803e3d6000fd5b505050506040513d6020811015610c5d57600080fd5b50519050818111610cb85760408051600160e51b62461bcd02815260206004820152601460248201527f50524f544f434f4c5f4e4f545f53544152544544000000000000000000000000604482015290519081900360640190fd5b50505b600254600160a01b900460ff16610d1c5760408051600160e51b62461bcd02815260206004820152601060248201527f4255594241434b5f49535f454e44454400000000000000000000000000000000604482015290519081900360640190fd5b6000610d26610a0b565b905060008111610d6e5760408051600160e51b62461bcd0281526020600482015260086024820152600160c41b670524546554e445f302604482015290519081900360640190fd5b600154604051600160e01b63f3993d11028152336004820181815230602484018190526060604485019081526064850188905287956001600160a01b03169463f3993d1194938a928892608401846020850280828437600081840152601f19601f82011690508083019250505095505050505050600060405180830381600087803b158015610dfc57600080fd5b505af1158015610e10573d6000803e3d6000fd5b503392506108fc9150610e2b9050848463ffffffff61112d16565b6040518115909202916000818181858888f19350505050158015610e53573d6000803e3d6000fd5b5060005b81811015610eb25733858583818110610e6c57fe5b905060200201357fd80eade75ae9e6851c77c535311c9f41a2dd6fba19e375235116c09f0810c128856040518082815260200191505060405180910390a3600101610e57565b5050505050565b6001546001600160a01b031681565b600254600160a01b900460ff1681565b6002546001600160a01b031681565b610eef610adb565b610f315760408051600160e51b62461bcd028152602060048201819052602482015260008051602061127d833981519152604482015290519081900360640190fd5b6002546001600160a01b0382811691161415610f885760408051600160e51b62461bcd02815260206004820152600b6024820152600160aa1b6a1393d517d0d2105391d15102604482015290519081900360640190fd5b600280546001600160a01b0383166001600160a01b0319909116811790915560408051918252517fea68326616526002c6586d10bed3db2a0a95cbfcd67e3cccc07ea345ea02e6f69181900360200190a150565b610fe4610adb565b6110265760408051600160e51b62461bcd028152602060048201819052602482015260008051602061127d833981519152604482015290519081900360640190fd5b61102f81611192565b50565b604080516001808252818301909252600091606091906020808301908038833901905050905060008160008151811061106757fe5b602090810291909101810191909152600254604051600160e11b630b71796b028152600481018381528451602483015284516001600160a01b03909316936316e2f2d69386938392604490910191858201910280838360005b838110156110d85781810151838201526020016110c0565b505050509050019250505060206040518083038186803b1580156110fb57600080fd5b505afa15801561110f573d6000803e3d6000fd5b505050506040513d602081101561112557600080fd5b505191505090565b60008261113c5750600061118c565b8282028284828161114957fe5b041461118957604051600160e51b62461bcd02815260040180806020018281038252602181526020018061125c6021913960400191505060405180910390fd5b90505b92915050565b6001600160a01b0381166111da57604051600160e51b62461bcd0281526004018080602001828103825260268152602001806112366026913960400191505060405180910390fd5b600080546040516001600160a01b03808516939216917f8be0079c531659141344cd1fd0a4f28419497f9722a3daafe3b4186f6b6457e091a3600080546001600160a01b0319166001600160a01b039290921691909117905556fe4f776e61626c653a206e6577206f776e657220697320746865207a65726f2061646472657373536166654d6174683a206d756c7469706c69636174696f6e206f766572666c6f774f776e61626c653a2063616c6c6572206973206e6f7420746865206f776e6572a165627a7a72305820e392e9b89941738f79f56e568f7f9a9d29d06a066f98f8bead510e4e8606c3600029",
    "linkReferences": {},
    "deployedLinkReferences": {}
}