{
    "_format": "hh-sol-artifact-1",
    "contractName": "VVIPMinterV2",
    "sourceName": "contracts/VVIPMinterV2.sol",
    "abi": [
        {
            "constant": true,
            "inputs": [
                {
                    "name": "",
                    "type": "address"
                }
            ],
            "name": "presaleBuyers",
            "outputs": [
                {
                    "name": "",
                    "type": "bool"
                }
            ],
            "payable": false,
            "stateMutability": "view",
            "type": "function"
        },
        {
            "constant": false,
            "inputs": [
                {
                    "name": "addrs",
                    "type": "address[]"
                }
            ],
            "name": "setV1Buyers",
            "outputs": [],
            "payable": false,
            "stateMutability": "nonpayable",
            "type": "function"
        },
        {
            "constant": false,
            "inputs": [
                {
                    "name": "ids",
                    "type": "uint256[]"
                }
            ],
            "name": "exit",
            "outputs": [],
            "payable": false,
            "stateMutability": "nonpayable",
            "type": "function"
        },
        {
            "constant": true,
            "inputs": [],
            "name": "devFund",
            "outputs": [
                {
                    "name": "",
                    "type": "address"
                }
            ],
            "payable": false,
            "stateMutability": "view",
            "type": "function"
        },
        {
            "constant": true,
            "inputs": [],
            "name": "gkronos",
            "outputs": [
                {
                    "name": "",
                    "type": "address"
                }
            ],
            "payable": false,
            "stateMutability": "view",
            "type": "function"
        },
        {
            "constant": true,
            "inputs": [
                {
                    "name": "",
                    "type": "address"
                }
            ],
            "name": "v1Buyers",
            "outputs": [
                {
                    "name": "",
                    "type": "bool"
                }
            ],
            "payable": false,
            "stateMutability": "view",
            "type": "function"
        },
        {
            "constant": false,
            "inputs": [
                {
                    "name": "token",
                    "type": "address"
                }
            ],
            "name": "emergencyWithdraw",
            "outputs": [],
            "payable": false,
            "stateMutability": "nonpayable",
            "type": "function"
        },
        {
            "constant": false,
            "inputs": [],
            "name": "renounceOwnership",
            "outputs": [],
            "payable": false,
            "stateMutability": "nonpayable",
            "type": "function"
        },
        {
            "constant": false,
            "inputs": [
                {
                    "name": "ids",
                    "type": "uint256[]"
                }
            ],
            "name": "enter",
            "outputs": [],
            "payable": false,
            "stateMutability": "nonpayable",
            "type": "function"
        },
        {
            "constant": true,
            "inputs": [],
            "name": "owner",
            "outputs": [
                {
                    "name": "",
                    "type": "address"
                }
            ],
            "payable": false,
            "stateMutability": "view",
            "type": "function"
        },
        {
            "constant": true,
            "inputs": [],
            "name": "isOwner",
            "outputs": [
                {
                    "name": "",
                    "type": "bool"
                }
            ],
            "payable": false,
            "stateMutability": "view",
            "type": "function"
        },
        {
            "constant": true,
            "inputs": [],
            "name": "price",
            "outputs": [
                {
                    "name": "",
                    "type": "uint256"
                }
            ],
            "payable": false,
            "stateMutability": "view",
            "type": "function"
        },
        {
            "constant": false,
            "inputs": [
                {
                    "name": "id",
                    "type": "uint256"
                }
            ],
            "name": "mint",
            "outputs": [],
            "payable": true,
            "stateMutability": "payable",
            "type": "function"
        },
        {
            "constant": true,
            "inputs": [],
            "name": "gstabledao",
            "outputs": [
                {
                    "name": "",
                    "type": "address"
                }
            ],
            "payable": false,
            "stateMutability": "view",
            "type": "function"
        },
        {
            "constant": true,
            "inputs": [],
            "name": "step",
            "outputs": [
                {
                    "name": "",
                    "type": "uint256"
                }
            ],
            "payable": false,
            "stateMutability": "view",
            "type": "function"
        },
        {
            "constant": true,
            "inputs": [],
            "name": "gsupernova",
            "outputs": [
                {
                    "name": "",
                    "type": "address"
                }
            ],
            "payable": false,
            "stateMutability": "view",
            "type": "function"
        },
        {
            "constant": false,
            "inputs": [
                {
                    "name": "newOwner",
                    "type": "address"
                }
            ],
            "name": "transferOwnership",
            "outputs": [],
            "payable": false,
            "stateMutability": "nonpayable",
            "type": "function"
        },
        {
            "constant": false,
            "inputs": [
                {
                    "name": "_step",
                    "type": "uint256"
                }
            ],
            "name": "setStep",
            "outputs": [],
            "payable": false,
            "stateMutability": "nonpayable",
            "type": "function"
        },
        {
            "anonymous": false,
            "inputs": [
                {
                    "indexed": true,
                    "name": "previousOwner",
                    "type": "address"
                },
                {
                    "indexed": true,
                    "name": "newOwner",
                    "type": "address"
                }
            ],
            "name": "OwnershipTransferred",
            "type": "event"
        }
    ],
    "bytecode": "0x608060408190526000600381905580546001600160a01b03191633178082556001600160a01b0316917f8be0079c531659141344cd1fd0a4f28419497f9722a3daafe3b4186f6b6457e0908290a3610f808061005c6000396000f3fe6080604052600436106101095760003560e01c80638da5cb5b11610095578063d2efb66511610064578063d2efb665146103fd578063e25fe17514610412578063e737c8ae14610427578063f2fde38b1461043c578063f8dcbddb1461046f57610109565b80638da5cb5b1461038f5780638f32d59b146103a4578063a035b1fe146103b9578063a0712d68146103e057610109565b80634d3075cf116100dc5780634d3075cf14610282578063563c1ab0146102975780636ff1c9bc146102ca578063715018a6146102fd5780637944135d1461031257610109565b80630c62b01b1461010e57806311c92c8b1461015557806318c08f26146101d45780634390d2a814610251575b600080fd5b34801561011a57600080fd5b506101416004803603602081101561013157600080fd5b50356001600160a01b0316610499565b604080519115158252519081900360200190f35b34801561016157600080fd5b506101d26004803603602081101561017857600080fd5b81019060208101813564010000000081111561019357600080fd5b8201836020820111156101a557600080fd5b803590602001918460208302840111640100000000831117156101c757600080fd5b5090925090506104ae565b005b3480156101e057600080fd5b506101d2600480360360208110156101f757600080fd5b81019060208101813564010000000081111561021257600080fd5b82018360208201111561022457600080fd5b8035906020019184602083028401116401000000008311171561024657600080fd5b509092509050610552565b34801561025d57600080fd5b50610266610662565b604080516001600160a01b039092168252519081900360200190f35b34801561028e57600080fd5b5061026661067a565b3480156102a357600080fd5b50610141600480360360208110156102ba57600080fd5b50356001600160a01b0316610692565b3480156102d657600080fd5b506101d2600480360360208110156102ed57600080fd5b50356001600160a01b03166106a7565b34801561030957600080fd5b506101d261083d565b34801561031e57600080fd5b506101d26004803603602081101561033557600080fd5b81019060208101813564010000000081111561035057600080fd5b82018360208201111561036257600080fd5b8035906020019184602083028401116401000000008311171561038457600080fd5b5090925090506108d1565b34801561039b57600080fd5b506102666109e1565b3480156103b057600080fd5b506101416109f0565b3480156103c557600080fd5b506103ce610a01565b60408051918252519081900360200190f35b6101d2600480360360208110156103f657600080fd5b5035610a0e565b34801561040957600080fd5b50610266610d90565b34801561041e57600080fd5b506103ce610da8565b34801561043357600080fd5b50610266610dae565b34801561044857600080fd5b506101d26004803603602081101561045f57600080fd5b50356001600160a01b0316610dc6565b34801561047b57600080fd5b506101d26004803603602081101561049257600080fd5b5035610e19565b60026020526000908152604090205460ff1681565b6104b66109f0565b6104f85760408051600160e51b62461bcd0281526020600482018190526024820152600080516020610f35833981519152604482015290519081900360640190fd5b60005b8181101561054d57600180600085858581811061051457fe5b602090810292909201356001600160a01b0316835250810191909152604001600020805460ff19169115159190911790556001016104fb565b505050565b61055a6109f0565b61059c5760408051600160e51b62461bcd0281526020600482018190526024820152600080516020610f35833981519152604482015290519081900360640190fd5b60005b8181101561054d5773bb915237d8b46dcdfe813c914bf98708e0dad84a6323b872dd30338686868181106105cf57fe5b905060200201356040518463ffffffff1660e01b815260040180846001600160a01b03166001600160a01b03168152602001836001600160a01b03166001600160a01b031681526020018281526020019350505050600060405180830381600087803b15801561063e57600080fd5b505af1158015610652573d6000803e3d6000fd5b50506001909201915061059f9050565b735d3c6e36538f485c3483b1c0d3e27a3416e1621781565b73bb915237d8b46dcdfe813c914bf98708e0dad84a81565b60016020526000908152604090205460ff1681565b6106af6109f0565b6106f15760408051600160e51b62461bcd0281526020600482018190526024820152600080516020610f35833981519152604482015290519081900360640190fd5b6001600160a01b0381166107465761070833610e68565b6040516001600160a01b039190911690303180156108fc02916000818181858888f19350505050158015610740573d6000803e3d6000fd5b5061083a565b60408051600160e01b6370a0823102815230600482015290516001600160a01b0383169163a9059cbb91339184916370a0823191602480820192602092909190829003018186803b15801561079a57600080fd5b505afa1580156107ae573d6000803e3d6000fd5b505050506040513d60208110156107c457600080fd5b50516040805163ffffffff851660e01b81526001600160a01b03909316600484015260248301919091525160448083019260209291908290030181600087803b15801561081057600080fd5b505af1158015610824573d6000803e3d6000fd5b505050506040513d602081101561054d57600080fd5b50565b6108456109f0565b6108875760408051600160e51b62461bcd0281526020600482018190526024820152600080516020610f35833981519152604482015290519081900360640190fd5b600080546040516001600160a01b03909116907f8be0079c531659141344cd1fd0a4f28419497f9722a3daafe3b4186f6b6457e0908390a3600080546001600160a01b0319169055565b6108d96109f0565b61091b5760408051600160e51b62461bcd0281526020600482018190526024820152600080516020610f35833981519152604482015290519081900360640190fd5b60005b8181101561054d5773bb915237d8b46dcdfe813c914bf98708e0dad84a6323b872dd333086868681811061094e57fe5b905060200201356040518463ffffffff1660e01b815260040180846001600160a01b03166001600160a01b03168152602001836001600160a01b03166001600160a01b031681526020018281526020019350505050600060405180830381600087803b1580156109bd57600080fd5b505af11580156109d1573d6000803e3d6000fd5b50506001909201915061091e9050565b6000546001600160a01b031690565b6000546001600160a01b0316331490565b683635c9adc5dea0000081565b600060035411610a1d57600080fd5b60035460011415610a88573360009081526001602081905260409091205460ff1615151415610a4b57600080fd5b3360009081526002602052604090205460ff16151560011415610a6d57600080fd5b336000908152600260205260409020805460ff191660011790555b683635c9adc5dea000003414610ad95760408051600160e51b62461bcd02815260206004820152600b6024820152600160a81b6a57524f4e475f505249434502604482015290519081900360640190fd5b60408051600160e01b6370a08231028152336004820152905160009173bb915237d8b46dcdfe813c914bf98708e0dad84a916370a0823191602480820192602092909190829003018186803b158015610b3157600080fd5b505afa158015610b45573d6000803e3d6000fd5b505050506040513d6020811015610b5b57600080fd5b5051118015610beb575060408051600160e01b6370a0823102815233600482015290516000917389a18abab20aab069feb7cab20517630ee7c1626916370a0823191602480820192602092909190829003018186803b158015610bbd57600080fd5b505afa158015610bd1573d6000803e3d6000fd5b505050506040513d6020811015610be757600080fd5b5051115b8015610c78575060408051600160e01b6370a08231028152336004820152905160009173ecce87e11d057713665f020c5e206e18fccbc8b7916370a0823191602480820192602092909190829003018186803b158015610c4a57600080fd5b505afa158015610c5e573d6000803e3d6000fd5b505050506040513d6020811015610c7457600080fd5b5051115b610cb95760408051600160e51b62461bcd0281526020600482015260076024820152600160cc1b6604e4f5f565649502604482015290519081900360640190fd5b60408051600160e01b6323b872dd02815230600482015233602482015260448101839052905173bb915237d8b46dcdfe813c914bf98708e0dad84a916323b872dd91606480830192600092919082900301818387803b158015610d1b57600080fd5b505af1158015610d2f573d6000803e3d6000fd5b50505050610d50735d3c6e36538f485c3483b1c0d3e27a3416e16217610e68565b6040516001600160a01b039190911690600090683635c9adc5dea000009082818181858883f19350505050158015610d8c573d6000803e3d6000fd5b5050565b73ecce87e11d057713665f020c5e206e18fccbc8b781565b60035481565b7389a18abab20aab069feb7cab20517630ee7c162681565b610dce6109f0565b610e105760408051600160e51b62461bcd0281526020600482018190526024820152600080516020610f35833981519152604482015290519081900360640190fd5b61083a81610e6b565b610e216109f0565b610e635760408051600160e51b62461bcd0281526020600482018190526024820152600080516020610f35833981519152604482015290519081900360640190fd5b600355565b90565b6001600160a01b038116610eb357604051600160e51b62461bcd028152600401808060200182810382526026815260200180610f0f6026913960400191505060405180910390fd5b600080546040516001600160a01b03808516939216917f8be0079c531659141344cd1fd0a4f28419497f9722a3daafe3b4186f6b6457e091a3600080546001600160a01b0319166001600160a01b039290921691909117905556fe4f776e61626c653a206e6577206f776e657220697320746865207a65726f20616464726573734f776e61626c653a2063616c6c6572206973206e6f7420746865206f776e6572a165627a7a72305820cbd147e6dff26de711382591c5bdca014145eb2821f708b754d803fc8c0af6f70029",
    "linkReferences": {},
    "deployedLinkReferences": {}
}